:10000000CDC10000FBC10000F9C10000F7C1000034
:10001000F5C10000F3C10000F1C10000EFC1000014
:10002000EDC10000EBC10000E9C10000E7C1000024
:10003000E5C100000C947B08E1C10000DFC10000B5
:10004000DDC10000DBC10000D9C10000D7C1000044
:10005000D5C10000D3C10000D1C100000C946B13C6
:10006000CDC100000C94880E0C94880FC7C100000D
:10007000C5C10000C3C10000C1C10000BFC1000074
:10008000BDC10000BBC10000B9C10000B7C1000084
:100090000C94C80E0C94C70FB1C100000C945917F2
:1000A000ADC10000ABC10000A9C10000A7C10000A4
:1000B000A5C10000A3C10000A1C100009FC10000B4
:1000C0009DC100009BC1000099C100000C94080F65
:1000D0000C94061093C100000C94480F0C9445102A
:1000E0008DC100005E1861186118611861186118EF
:1000F0006118611878176118611861186118611822
:100100006118611878176118611861186118611811
:1001100061186118801761186118611861186118F9
:1001200061186118A51761186118611861186118C4
:1001300061186118801761186118611861186118D9
:1001400061186118AA17611861186118611861189F
:1001500061186118AF17611861186118611861188A
:1001600061186118C0176118611861186118611869
:1001700061186118E9176118611861186118611830
:1001800061186118B4176118611861186118611855
:1001900061186118CE17611861186118611861182B
:1001A00061186118EB1761186118611861186118FE
:1001B00061186118EB1761186118611861186118EE
:1001C00061186118EB1761186118611861186118DE
:1001D00061186118EB1761186118611861186118CE
:1001E00061186118F41761186118611861186118B5
:1001F0006118611825186118611861186118611873
:1002000061186118F4176118611861186118611894
:100210006118611825186118611861186118611852
:10022000611861180C18611861186118611861185B
:10023000611861182918611861186118611861182E
:10024000611861182918611861186118611861181E
:10025000611861183E1861186118611861186118F9
:1002600061186118581861186118611861186118CF
:100270006118611858180000090A02080B0C0D07D4
:100280000603040100000000000000000000000060
:10029000000000000000000000000000000000005E
:1002A000000011100F00000000000000000000001E
:1002B000000000000000000000000000010210200B
:1002C000200808102040102040800201020108048C
:1002D0000201010204081020408080402010080420
:1002E0000201800402018040201008040201080479
:1002F00002010102040810204080010204081020BD
:1003000040800505050507050808080802020202E5
:100310000A0A0808040404040101010101010101A1
:100320000303030303030303040707070C0C0C0C6C
:100330000C0C0C0C02020202060606060606060655
:100340000B0B0B0B0B0B0B0B0000200023002600EC
:1003500029002C002F0032000001000003010601DB
:10036000090100002200250028002B002E0031008A
:10037000340002010000050108010B01000021000A
:10038000240027002A002D00300033000101000066
:10039000040107010A018803B10C4B1111241FBE8F
:1003A000CFEFD1E2DEBFCDBF00E00CBF13E0A0E095
:1003B000B2E0ECE7F1E300E00BBF02C007900D9262
:1003C000AA32B107D9F72CE0AAE2B3E001C01D922E
:1003D000A73FB207E1F713E0CCE9D3E000E006C0A5
:1003E00022970109FE010BBF0E94B818C639D10738
:1003F00080E00807A9F741D10C94BC1801CE8AE22D
:10040000C82E83E0D82E9CE2E92E93E0F92E0EE26E
:1004100013E020E333E042E353E064E373E08EE370
:1004200093E04ED468EE73E080E090E00E94F61313
:100430006AE072E08EE39AE00E943E12609134031B
:10044000709135034AE050E08EE39AE00E94501329
:100450006EE072E08EE39AE00E943E1260913203F9
:10046000709133034AE050E08EE39AE00E9450130B
:100470006EE072E08EE39AE00E943E1260913003DB
:10048000709131034AE050E08EE39AE00E945013ED
:100490006EE072E08EE39AE00E943E1260912E03BD
:1004A00070912F034AE050E08EE39AE00E945013CF
:1004B0006EE072E08EE39AE00E943E1260912C039F
:1004C00070912D034AE050E08EE39AE00E945013B1
:1004D0006EE072E08EE39AE00E943E1260912A0381
:1004E00070912B034AE050E08EE39AE00E9458138B
:1004F00086CF22E0822E912CA12CB12C60E087E3E4
:100500000E944B1582E090E00E941E1461E087E398
:100510000E944B158AE090E00E941E1460E087E381
:100520000E944B1520E432E44FE050E061E088E3A4
:100530000E947D15A50194010E949618CA01B90177
:100540000E944F0D2DEC3CEC48EE51E40E94B40C9F
:100550000E941C0D6B017C01DC01CB010197A109FC
:10056000B10983369105A105B10530F461E082E25D
:100570000E944B1560E00BC084E6C816D104E1046C
:10058000F10464F060E082E20E944B1561E083E2D6
:100590000E944B1584EF91E00E94330B60E172E002
:1005A0008EE39AE00E9476122AE030E0B701A601BD
:1005B0008EE39AE00E943D1368E372E08EE39AE0D6
:1005C0000E94761268EE73E080E090E00E94F613DD
:1005D00095CF61E087E30E94091560E088E30E94FF
:1005E000091561E083E20E94091561E082E20E9440
:1005F000091561E08DE00E94091561E08EE00E941E
:10060000091586E899E00E94790C6DEA72E08EE3A4
:100610009AE00E9476128EE393E0C9D361E08EE304
:1006200093E048D386E393E0E9D069EC72E08EE38F
:100630009AE00E94761286E393E0A8D0882319F00E
:100640006BE372E002C06AE572E08EE39AE00E941A
:10065000761269EC72E08EE39AE00E9476128EE3E5
:1006600093E0D0D3882319F065E772E002C063E914
:1006700072E08EE39AE00C947612AF92BF92CF9222
:10068000DF92EF92FF920F93CF93DF9300D01F92F0
:10069000CDB7DEB70E9428149CDF40E855E260E049
:1006A00070E08EE39AE00E94C81061E08BE00E9447
:1006B0000915A12CB12CC12CD12CCE0103967C01A3
:1006C00005E020E030E046EF51E067EF72E08FEFA9
:1006D00091E067D5CE0101967C0103E020E030E097
:1006E00046EF51E06EEF72E089E792E05AD553D6BB
:1006F00080E090E00F900F900F900F90DF91CF91DE
:100700000F91FF90EF90DF90CF90BF90AF90089542
:100710008EE393E0B7D286E393E034C0CF93DF93C8
:10072000EC0162D680914D0390914E03892B31F4F8
:1007300082E593E090934E0380934D0340914F03E5
:10074000509150039E01240F351F2B3D85E0380743
:1007500070F44217530770F4C0914D03D0914E03CB
:10076000C40FD51F3093500320934F0305C0C0E042
:10077000D0E002C0C0E0D0E0F8D6CE01DF91CF914A
:10078000089508952EE1FC01208308950F931F938F
:10079000CF93DF93EC0100910602109107029C01B8
:1007A0002F5F3F4F43E06AE088817DD0833051F472
:1007B0008981883439F48A81843321F481E09B81F2
:1007C000933309F080E0DF91CF911F910F9108954D
:1007D000462F4295440F407E61E0FC01808154C069
:1007E0001F93CF93DF93EC01162F4F8162E0888136
:1007F0004BD01F83DF91CF911F910895CF93DF934B
:10080000EC0140E760E088813FD061E0CE01E0DFAD
:1008100061E0CE01DF91CF91E3CFEF92FF920F9392
:100820001F93CF93DF931F921F92CDB7DEB7062F92
:10083000142F682F86E899E029833A830E94920C4E
:10084000602F86E899E00E943A0C2981022FE22E5F
:100850003A81F32E8E2D801B811740F4F7016191B0
:100860007F0186E899E00E943A0CF4CF86E899E08F
:100870000E94AF0C81E00F900F90DF91CF911F91FC
:100880000F91FF90EF900895CF93DF931F92CDB714
:10089000DEB749839E012F5F3F4F41E0BEDF0F90DF
:1008A000DF91CF9108953F924F925F926F927F9226
:1008B0008F929F92AF92BF92CF92DF92EF92FF9270
:1008C0000F931F93CF93DF9300D000D0CDB7DEB747
:1008D000682E562E742E3A8329830E94B5136B011D
:1008E0007C01312C412C872D90E09C838B83480127
:1008F000A12CB12C371498F5662D86E899E00E945A
:10090000920C652D86E899E0B5D786E899E00E94BB
:10091000AF0C662D86E899E00E94920C4B815C81B9
:10092000431951094132510514F040E250E0662D5F
:1009300086E899E0F5D786E899E044D7892B59F104
:100940000115110591F10E94B5136C197D098E09ED
:100950009F09681579058A059B0538F11CC00115AA
:10096000110599F10E94B5136C197D098E099F0933
:1009700020E030E0601771078207930730F1872D80
:1009800090E0242D332727FD309528173907ECF404
:1009900044244A941AC086E899E0E1D7872D90E272
:1009A000971508F480E2380EA5CFE981FA81E40DAD
:1009B000F11D47FCFA95FE83ED8386E899E00AD79E
:1009C000ED81FE8180834394B6CF842D26960FB6A9
:1009D000F894DEBF0FBECDBFDF91CF911F910F9175
:1009E000FF90EF90DF90CF90BF90AF909F908F904F
:1009F0007F906F905F904F903F9008950F931F935B
:100A000089019A0141E04FDF1F910F910895CF9224
:100A1000DF92EF92FF920F931F93CF93DF931F927A
:100A2000CDB7DEB7C42ED22E9701AE014F5F5F4F18
:100A3000E5DF8823F1F04C2D50E04D1951094F5F4F
:100A40005F4F61E070E002C0660F771FDA94E2F753
:100A500061507109042E01C0660F0A94EAF72981DA
:100A6000262330E002C0359527954A95E2F7F80134
:100A700020830F90DF91CF911F910F91FF90EF9006
:100A8000DF90CF900895EF92FF920F931F93CF9333
:100A9000DF931F92CDB7DEB7182F062FF42EE22E6C
:100AA0002091060230910702AE014F5F5F4FA6DF33
:100AB000898121E030E00F2C01C0220F0A94EAF76F
:100AC000EE2019F0482F422B03C0422F40954823B7
:100AD0004983602F812FD8DE0F90DF91CF911F9136
:100AE0000F91FF90EF900895DF92EF92FF920F9396
:100AF0001F93CF93DF931F92CDB7DEB7F82EE62E6C
:100B0000D42E122F2091060230910702AE014F5FC2
:100B10005F4F74DF882311F14D2D50E0411B5109C7
:100B20004F5F5F4FE1E0F0E002C0EE0FFF1F1A954C
:100B3000E2F73197042E01C0EE0F0A94EAF701C0E4
:100B4000000F4A95EAF74E2F409589814823E0230C
:100B50004E2B49836E2D8F2D97DE01C080E00F90C4
:100B6000DF91CF911F910F91FF90EF90DF9008954B
:100B7000FC010396928381832FEF3FEF348323831D
:100B8000968385839087878310820895FC01118660
:100B900010860895CF93DF939C01FB01DC01119631
:100BA000CD91DC911297D383C2838C819D819583F3
:100BB00084838C819D81DC0113967C936E931297C4
:100BC0007D836C8331872087F90180818F5F8083EB
:100BD000DF91CF910895CF93DF93EB014881598145
:100BE0004F3F2FEF520721F4FC01A781B0850DC0C4
:100BF000DC0113961296ED91FC91139720813181BF
:100C00004217530710F0DF01F5CF1296ED91FC91DA
:100C10001397FB83EA83D583C483BD83AC83139688
:100C2000DC93CE93129799878887FC0120812F5FF0
:100C30002083DF91CF910895CF93DF93FC01A085AE
:100C4000B185C281D381848195819D838C83C48148
:100C5000D581828193819B838A831196CD91DC918A
:100C60001297CE17DF0731F48C819D8112969C93E9
:100C70008E931197118610868C9181508C93DF9101
:100C8000CF91089528E6FC01208308950F93062F45
:100C900022E044E06BE1FC01808126DF0F910895A2
:100CA0000F93062F22E044E06CE1FC0180811CDF01
:100CB0000F910895262F41E067E3FC018081E3CE88
:100CC0004F925F926F927F928F929F92AF92BF925C
:100CD000CF92DF92EF92FF920F931F93CF93DF9308
:100CE000EC015B013A0149012801009106021091D3
:100CF00007029C012F5F3F4F4EE06BE38881D3DDFD
:100D0000898190E0982F88272A81822BF501918391
:100D100080838B8190E0982F88272C81822BF30190
:100D2000918380838D8190E0982F88272E81822B5C
:100D3000F40191838083898590E0982F88272A8504
:100D4000822BF201918380838B8590E0982F8827F6
:100D50002C85822BF701918380838D8590E0982FDD
:100D600088272E85822BF60191838083DF91CF9196
:100D70001F910F91FF90EF90DF90CF90BF90AF90B9
:100D80009F908F907F906F905F904F900895262F47
:100D900046E06BE6FC01808176CE0F93062F23E0C0
:100DA00042E06BE6FC0180819FDE0F910895CF93B6
:100DB000DF93EC0161E0F1DF60E0CE0167DF60E02E
:100DC000CE016EDF60E0CE01DF91CF91E0CFEF92F8
:100DD000FF920F931F93CF93DF93EC01E0900602F5
:100DE000F09007028C010F5F1F4F26E046E065E799
:100DF00088810DDE8981DF91CF911F910F91FF9046
:100E0000EF900895E4DF91E0843309F090E0892FBA
:100E1000089531E1FC013083319722E2208331973C
:100E2000A3E3A08331976083319770833197108259
:100E300031971082319760E8608331971082319743
:100E4000108231971082319762E06083319763E0BE
:100E50006083319764E06083319765E06083319708
:100E600066E06083319767E06083319768E0608374
:100E7000319769E06083319760E160833197308317
:100E8000319732E13083319733E13083319734E168
:100E90003083319735E13083319736E130833197B4
:100EA00037E13083319738E13083319739E130834E
:100EB000319730E23083319731E2308331972083AC
:100EC000319723E2208331974083319750833197C4
:100ED00026E22083319727E22083319728E220837E
:100EE000319729E22083319720E32083319721E352
:100EF00020838997089582E08093B0001092B20019
:100F000090E39093B3008093700083E08093B100EE
:100F1000A0918409B0918509CD91CDBFDD91DEBF4F
:100F2000FF91EF91DF91CF91BF91AF919F918F9101
:100F30007F916F915F914F913F912F911F910F91F1
:100F4000FF90EF90DF90CF90BF90AF909F908F90E9
:100F50007F906F905F904F903F902F901F900F90D9
:100F60000CBE0F900BBE0F900FBE0F90089581E046
:100F700008950F920FB6F8940F920BB60F920CB61D
:100F80000F921F9211242F923F924F925F926F9275
:100F90007F928F929F92AF92BF92CF92DF92EF9209
:100FA000FF920F931F932F933F934F935F936F93F2
:100FB0007F938F939F93AF93BF93CF93DF93EF93E1
:100FC000FF93A0918409B09185090DB60D920EB6DC
:100FD0000D929AD3A0918409B0918509CD91CDBF8E
:100FE000DD91DEBFFF91EF91DF91CF91BF91AF9186
:100FF0009F918F917F916F915F914F913F912F9131
:101000001F910F91FF90EF90DF90CF90BF90AF9026
:101010009F908F907F906F905F904F903F902F9018
:101020001F900F900CBE0F900BBE0F900FBE0F9035
:1010300008950F920FB6F8940F920BB60F920CB65C
:101040000F921F9211242F923F924F925F926F92B4
:101050007F928F929F92AF92BF92CF92DF92EF9248
:10106000FF920F931F932F933F934F935F936F9331
:101070007F938F939F93AF93BF93CF93DF93EF9320
:10108000FF93A0918409B09185090DB60D920EB61B
:101090000D92B0D1811138D3A0918409B091850906
:1010A000CD91CDBFDD91DEBFFF91EF91DF91CF916B
:1010B000BF91AF919F918F917F916F915F914F9170
:1010C0003F912F911F910F91FF90EF90DF90CF9064
:1010D000BF90AF909F908F907F906F905F904F9058
:1010E0003F902F901F900F900CBE0F900BBE0F9053
:1010F0000FBE0F9008959DDF1895E0914C09F09177
:101100004D098081811107C08FEF9FEF90930902F5
:10111000809308020895E0914C09F0914D090580F3
:10112000F681E02D0680F781E02D828193819093F6
:101130000902809308020895CF93DF93EC01E091B8
:101140008409F09185099383828380913409909179
:101150003509C817D90760F4609184097091850931
:1011600080914A0990914B096E5F7F4F34DD16C024
:10117000609184097091850980914C0990914D0985
:101180006E5F7F4F28DD8091080290910902C81799
:10119000D90720F4D0930902C0930802DF91CF91C0
:1011A00008954F925F926F927F928F929F92AF922B
:1011B000BF92CF92DF92EF92FF920F931F93CF9344
:1011C000DF934C015B012A01390181E290E0A6DA4C
:1011D000EC01009709F4CDC0C114D10409F0B2C0EC
:1011E000C2019CDA988F8F8B892B09F0ADC0CE019C
:1011F000C8DABFC0CF013191DA013D93AD01DC0106
:101200008C91882311F02150A9F718A2102F0430D7
:1012100008F013E01E8B5E01B2E0AB0EB11CC501FD
:10122000B5DCCE010C96B2DCD987C88784E090E0AB
:10123000811B91099D878C87DB8BCA8BA301B4012D
:10124000C601E7DD99838883E114F10419F0F70101
:10125000D183C0830FB6F8940F92809136098F5FC7
:10126000809336098091840990918509892B69F5CD
:10127000D0938509C0938409809136098130A1F506
:1012800080E699E075DC89E699E072DC82E799E016
:101290006FDC8BE799E06CDC87E599E069DC8EE434
:1012A00099E066DC81E499E063DC88E399E060DC46
:1012B00087E599E090934D0980934C098EE499E07D
:1012C00090934B0980934A090FC080913209811194
:1012D0000BC0E0918409F09185098689081720F0F8
:1012E000D0938509C093840980912E098F5F8093E4
:1012F0002E098E8990913309981710F48093330941
:1013000090E09C01220F331F220F331F220F331F47
:10131000820F931FB501805A964F3CDC0F900FBE91
:1013200080913209882351F0E0918409F091850978
:101330008689801728F41DDE81E01CC081E01AC078
:1013400081E018C0D88ECF8AF1E04F1A5108CF88BB
:10135000D88CC40CD51CD5018C91898F8C91882395
:1013600009F453CFAE01465E5F4FF501319627E099
:1013700041CF8FEFDF91CF911F910F91FF90EF90B1
:10138000DF90CF90BF90AF909F908F907F906F90A5
:101390005F904F900895AF92BF92CF92DF92EF92FD
:1013A000FF920F93A12CB12CC12CD12CE12CF12C4C
:1013B00000E020E030E045E550E065E073E08EE4D9
:1013C0009BE0EFDE813041F4F89480933209109273
:1013D0003509109234098FDD0F91FF90EF90DF9067
:1013E000CF90BF90AF90089580912D098F5F80932B
:1013F0002D090895CF92DF92EF92FF920F931F93E2
:10140000CF93DF9380912D09811196C0809134098B
:101410009091350901969093350980933409E090B5
:101420003409F0903509E114F104B1F480914C09CC
:1014300090914D0920914A0930914B0930934D0903
:1014400020934C0990934B0980934A0980912F096E
:101450008F5F80932F0951DE8091080290910902DD
:10146000E816F90608F451C0D12CCC24C39401C06D
:10147000DC2CE0914C09F0914D098081811107C06D
:101480008FEF9FEF90930902809308023FC0E09195
:101490004C09F0914D090580F681E02DC681D78178
:1014A0002A813B81E216F30628F430930902209347
:1014B00008022CC08E010E5F1F4FC801BDDB8C8956
:1014C0009D89892B19F0CE010C96B6DB2E8980916F
:1014D0003309821710F42093330930E0C901880FD3
:1014E000991F880F991F880F991F820F931FB801AA
:1014F000805A964F4FDBE0918409F09185099E89CF
:101500008689981708F0B4CFB4CFD12CE091840924
:10151000F0918509868990E0FC01EE0FFF1FEE0F28
:10152000FF1FEE0FFF1F8E0F9F1FFC01E05AF64FAB
:101530008081823040F409C0809131098F5F8093AF
:101540003109D12C02C0DD24D39480913009882345
:1015500011F0DD24D3948D2DDF91CF911F910F9148
:10156000FF90EF90DF90CF900895DF92EF92FF927F
:101570000F931F93CF93DF930FB6F8940F92809140
:101580002D09815080932D0980912D0981115CC016
:1015900080913609882309F459C00F2EF1E4EF2E0B
:1015A000F9E0FF2EF02DDD24D3942DC0E091460903
:1015B000F0914709C681D781CE010C963DDB8E01A3
:1015C0000E5F1F4FC80138DB8E8990913309981741
:1015D00010F48093330990E09C01220F331F220FF7
:1015E000331F220F331F820F931FB801805A964F6B
:1015F000D1DAE0918409F09185099E89868998174E
:1016000010F0D0923009F70180818111CFCF809105
:101610003109882391F080913109882371F0C1E06C
:10162000E9DE8111C09330098091310981508093A6
:101630003109809131098111F3CF809130098130D6
:1016400039F497DC81E005C080E003C080E001C090
:1016500080E00F900FBEDF91CF911F910F91FF900F
:10166000EF90DF900895CF93DF93EC01009791F016
:10167000BBDE8091340990913509C80FD91F809144
:101680008409909185090296D7DACE0155DD6DDF88
:10169000811101C06EDCDF91CF9108950F2EF0E62D
:1016A000EF2EF9E0FF2EF02DC8E3D9E023C09CDE39
:1016B00018815BDF1123F1F00FB6F8940F92E091DF
:1016C0003D09F0913E0906811781C8010296B4DAFE
:1016D0008091360981508093360980913709815075
:1016E000809337090F900FBEF8018789908D49D8F4
:1016F000C80147D8809137098111D9CFF70180817E
:101700008230C0F336DCF6CF80912D09882321F09A
:1017100081E0809330090895109230098091330957
:1017200090E0FC01EE0FFF1FEE0FFF1FEE0FFF1FFB
:101730008E0F9F1FFC01E05AF64F8081811117C068
:10174000809133098150809333098091330990E06F
:10175000FC01EE0FFF1FEE0FFF1FEE0FFF1F8E0F9E
:101760009F1FFC01E05AF64F8081882349F3E091E6
:101770003309F0E0CF01880F991F880F991F880F58
:10178000991FE80FF91FE05AF64FA181B281129616
:101790000D90BC91A02DB283A183CF010396A81711
:1017A000B90731F412968D919C911397928381839E
:1017B0000180F281E02D8681978190938509809345
:1017C000840908958091B60990E02091B709821BA1
:1017D000910908952091B7098091B609281750F40E
:1017E000E22FF0E0E854F64F808190E02F5F2093E5
:1017F000B70908958FEF9FEF0895E091B7098091A1
:10180000B609E81730F4F0E0E854F64F808190E034
:1018100008958FEF9FEF08950895CF92DF92EF9292
:10182000FF920F931F93CF93DF937C01CB018A012B
:1018300020919209222389F0EB016B01C40ED51E81
:10184000CC15DD0569F06991D701ED91FC9101900E
:10185000F081E02DC7011995F3CF642F0E9429175D
:10186000C801DF91CF911F910F91FF90EF90DF9012
:10187000CF900895CF93DF931F92CDB7DEB76983E2
:10188000209192092223D1F020919309203240F037
:1018900021E030E0FC013383228380E090E015C03A
:1018A00080919409E82FF0E0EB56F64F99819083F0
:1018B0008F5F809394098093930905C061E0CE0106
:1018C00001960E94291781E090E00F90DF91CF915F
:1018D0000895FC011382128248EE53E060E070E04C
:1018E00044835583668377838EE093E0918380837E
:1018F00008951092B7091092B609109294091092A7
:1019000093090C946216862F413208F040E268EB8E
:1019100079E00E947E161092B7098093B609089567
:1019200021E0F1CF81E0809392096093B509109294
:1019300094091092930908950F93062F21E0409186
:10194000930965E979E08091B5090E94CC1610925F
:10195000940910929309109292090F91089561E0F1
:10196000EBCF86E899E0B5CF0CD0EBC0E3D040F0E8
:10197000DAD030F021F45F3F19F0CCC0511115C11D
:10198000CFC0F0D098F39923C9F35523B1F3951B39
:10199000550BBB27AA2762177307840738F09F5F90
:1019A0005F4F220F331F441FAA1FA9F333D00E2EFF
:1019B0003AF0E0E830D091505040E695001CCAF76C
:1019C00029D0FE2F27D0660F771F881FBB1F261731
:1019D00037074807AB07B0E809F0BB0B802DBF0104
:1019E000FF2793585F4F2AF09E3F510568F092C041
:1019F000DCC05F3FECF3983EDCF386957795679506
:101A0000B795F7959F5FC9F7880F911D96958795B4
:101A100097F90895E1E0660F771F881FBB1F6217D3
:101A200073078407BA0720F0621B730B840BBA0B91
:101A3000EE1F88F7E095089504D06894B111B5C001
:101A4000089598D088F09F5790F0B92F9927B751F3
:101A5000A0F0D1F0660F771F881F991F1AF0BA9572
:101A6000C9F712C0B13081F09FD0B1E008959CC099
:101A7000672F782F8827B85F39F0B93FCCF3869568
:101A800077956795B395D9F73EF4909580957095C5
:101A900061957F4F8F4F9F4F0895E89409C097FB42
:101AA0003EF490958095709561957F4F8F4F9F4F35
:101AB0009923A9F0F92F96E9BB279395F695879579
:101AC00077956795B795F111F8CFFAF4BB0F11F43C
:101AD00060FF1BC06F5F7F4F8F4F9F4F16C08823E3
:101AE00011F096E911C0772321F09EE8872F762F19
:101AF00005C0662371F096E8862F70E060E02AF05A
:101B00009A95660F771F881FDAF7880F9695879545
:101B100097F9089597F99F6780E870E060E008956D
:101B20009FEF80EC089500240A94161617061806F5
:101B30000906089500240A941216130614060506D1
:101B40000895092E0394000C11F4882352F0BB0F62
:101B500040F4BF2B11F460FF04C06F5F7F4F8F4FC5
:101B60009F4F089557FD9058440F551F59F05F3F00
:101B700071F04795880F97FB991F61F09F3F79F0AF
:101B800087950895121613061406551FF2CF469531
:101B9000F1DF08C0161617061806991FF1CF8695B3
:101BA0007105610508940895E894BB276627772797
:101BB000CB0197F90895FC0184859585FC01E05CD3
:101BC000FF4F20813181FC01EE5BFF4F80819181CD
:101BD000281B390B2F733327822F932F0895FC0175
:101BE00084859585FC01E05CFF4F40815181FC01BB
:101BF000EE5BFF4F208131814217530759F0FC0102
:101C0000EE5BFF4F20813181FC01E20FF31F208149
:101C100030E002C02FEF3FEF822F932F0895FC0199
:101C200084859585FC01E05CFF4F40815181FC017A
:101C3000EE5BFF4F208131814217530791F0FC0189
:101C4000EE5BFF4F20813181DC01A20FB31F2C918D
:101C50008081918101968F7399279183808330E0F1
:101C600002C02FEF3FEF822F932F0895FC0181A137
:101C7000882329F0A489B5898C9186FFFBCF11A216
:101C80000895DC011E968D919C911F97FC01E05CEC
:101C9000FF4F408151814F5F5F4F4F735527FC01CC
:101CA000EE5BFF4F2081318124173507D9F3FC010A
:101CB000E05CFF4F20813181FC01E20FF31F608364
:101CC0001E96ED91FC911F97E05CFF4F518340837E
:101CD0005696ED91FC915797408121E030E0C90183
:101CE0005F960C905F9702C0880F991F0A94E2F7E5
:101CF000842B808381E091968C9391975496ED91FB
:101D0000FC91559780818064808381E090E0089504
:101D10001F920F920FB60F9211240BB60F922F93B2
:101D20003F934F938F939F93AF93BF93EF93FF9303
:101D30008091C00082FD1AC04091C60080917C0C49
:101D400090917D0C01968F73992720917E0C309194
:101D50007F0C8217930761F0ECE7FCE0A081B18172
:101D6000A45CB34F4C939183808302C08091C600E2
:101D7000FF91EF91BF91AF919F918F914F913F91C3
:101D80002F910F900BBE0F900FBE0F901F901895C4
:101D90001F920F920FB60F9211240BB60F922F9332
:101DA0003F934F938F939F93AF93BF93EF93FF9383
:101DB0008091C80082FD1AC04091CE008091F40B42
:101DC0009091F50B01968F7399272091F60B309126
:101DD000F70B8217930761F0E4EFFBE0A081B1817C
:101DE000AC54B44F4C939183808302C08091CE0059
:101DF000FF91EF91BF91AF919F918F914F913F9143
:101E00002F910F900BBE0F900FBE0F901F90189543
:101E10001F920F920FB60F9211240BB60F922F93B1
:101E20003F934F938F939F93AF93BF93EF93FF9302
:101E30008091D00082FD1AC04091D60080916C0B39
:101E400090916D0B01968F73992720916E0B3091B5
:101E50006F0B8217930761F0ECE6FBE0A081B18184
:101E6000A45DB44F4C939183808302C08091D600CF
:101E7000FF91EF91BF91AF919F918F914F913F91C2
:101E80002F910F900BBE0F900FBE0F901F901895C3
:101E90001F920F920FB60F9211240BB60F922F9331
:101EA0003F934F938F939F93AF93BF93EF93FF9382
:101EB0008091300182FD1AC0409136018091E40A80
:101EC0009091E50A01968F7399272091E60A309147
:101ED000E70A8217930761F0E4EEFAE0A081B1818E
:101EE000AC55B54F4C939183808302C080913601ED
:101EF000FF91EF91BF91AF919F918F914F913F9142
:101F00002F910F900BBE0F900FBE0F901F90189542
:101F10001F920F920FB60F9211240BB60F922F93B0
:101F20003F938F939F93AF93BF93EF93FF93209132
:101F3000380C3091390C80913A0C90913B0C281759
:101F4000390731F4E1ECF0E080818F7D808310C0AF
:101F5000EAE3FCE0A081B181A850B44F2C918081CC
:101F6000918101968F739927918380832093C60076
:101F7000FF91EF91BF91AF919F918F913F912F91E1
:101F80000F900BBE0F900FBE0F901F9018951F92D1
:101F90000F920FB60F9211240BB60F922F933F930F
:101FA0008F939F93AF93BF93EF93FF932091B00BC9
:101FB0003091B10B8091B20B9091B30B2817390778
:101FC00031F4E9ECF0E080818F7D808310C0E2EB9A
:101FD000FBE0A081B181A059B44F2C918081918107
:101FE00001968F739927918380832093CE00FF9170
:101FF000EF91BF91AF919F918F913F912F910F9052
:102000000BBE0F900FBE0F901F9018951F920F924E
:102010000FB60F9211240BB60F922F933F938F930D
:102020009F93AF93BF93EF93FF932091280B309131
:10203000290B80912A0B90912B0B2817390731F42B
:10204000E1EDF0E080818F7D808310C0EAE2FBE06B
:10205000A081B181A851B54F2C91808191810196C9
:102060008F739927918380832093D600FF91EF91FE
:10207000BF91AF919F918F913F912F910F900BBE88
:102080000F900FBE0F901F9018951F920F920FB6D2
:102090000F9211240BB60F922F933F938F939F9320
:1020A000AF93BF93EF93FF932091A00A3091A10AC1
:1020B0008091A20A9091A30A2817390731F4E1E32D
:1020C000F1E080818F7D808310C0E2EAFAE0A08198
:1020D000B181A05AB54F2C918081918101968F7367
:1020E00099279183808320933601FF91EF91BF91CF
:1020F000AF919F918F913F912F910F900BBE0F90B9
:102100000FBE0F901F9018958F929F92AF92BF9223
:10211000CF92DF92EF92FF920F931F93CF93DF93B3
:10212000CDB7DEB7FC011382128288EE93E0A0E007
:10213000B0E084839583A683B7838EE193E0918397
:1021400080837587648757874687318B208B138BF5
:10215000028BF58AE48AD78AC68AB18EA08E938EC6
:10216000828E8889848F8989858F8A89868F8B89D9
:10217000878F8C8980A3DF91CF911F910F91FF9062
:10218000EF90DF90CF90BF90AF909F908F90089589
:10219000CF92DF92EF92FF92CF93DF93EC016A012F
:1021A0007B01411581EE58076105710501F1EC894C
:1021B000FD8981E090E008A002C0880F991F0A9471
:1021C000E2F7808360E079E08DE390E0A70196017B
:1021D0008BD7DA01C9010197A109B109B695A79575
:1021E000979587959C01211580E13807A0F0EC892F
:1021F000FD89108260E874E88EE190E0A701960105
:1022000073D7DA01C9010197A109B109B695A7955C
:10221000979587959C01E889F9893083EA89FB893C
:10222000208319A2EE89FF89408181E090E09C0122
:102230000C8C02C0220F331F0A94E2F7242B208358
:10224000EE89FF8940819C010D8C02C0220F331F53
:102250000A94E2F7242B2083EE89FF8940819C01B8
:102260000E8C02C0220F331F0A94E2F7242B208326
:10227000EE89FF8920810F8C02C0880F991F0A9474
:10228000E2F7809582238083DF91CF91FF90EF90DA
:10229000DF90CF9008955F926F927F928F929F927E
:1022A000AF92BF92CF92DF92EF92FF920F931F9364
:1022B000CF93DF93552453945F920F2EF5E06F2E4A
:1022C000F02D6F920F2EF7E07F2EF02D7F92D3E04E
:1022D000DF93C4E0CF930F2EF6EC8F2E912CF02DD0
:1022E0000F2EF2ECAF2EB12CF02D0F2EF1ECCF2EE5
:1022F000D12CF02D0F2EF0ECEF2EF12CF02D04EC64
:1023000010E025EC30E048EF5BE06CE37CE08EE32E
:102310009AE0FADE5F926F927F92DF93CF930F2E57
:10232000FEEC8F2E912CF02D0F2EFAECAF2EB12C4F
:10233000F02D0F2EF9ECCF2ED12CF02D0F2EF8EC26
:10234000EF2EF12CF02D0CEC10E02DEC30E040E7FE
:102350005BE064EB7BE08CE19AE0D6DE5F926F920B
:102360007F92DF93CF930F2EF6ED8F2E912CF02DD1
:102370000F2EF2EDAF2EB12CF02D0F2EF1EDCF2E52
:10238000D12CF02D0F2EF0EDEF2EF12CF02D04EDD1
:1023900010E025ED30E048EE5AE06CE27BE08AEF99
:1023A00099E0B2DE5F926F927F92DF93CF930F2E10
:1023B000F6E38F2E99249394F02D0F2EF2E3AF2E97
:1023C000BB24B394F02D0F2EF1E3CF2EDD24D39454
:1023D000F02D0F2EF0E3EF2EFF24F394F02D04E305
:1023E00011E025E331E040E65AE064EA7AE088ED66
:1023F00099E08ADE8DB79EB744960FB6F8949EBFDB
:102400000FBE8DBFDF91CF911F910F91FF90EF9085
:10241000DF90CF90BF90AF909F908F907F906F9004
:102420005F900895CF92DF92EF92FF920F931F93E8
:10243000CF93DF937C016B01EA01209791F000E0DC
:1024400010E0D6016D916D01D701ED91FC910190E5
:10245000F081E02DC7011995080F191F219789F701
:1024600002C000E010E0802F912FDF91CF911F91EB
:102470000F91FF90EF90DF90CF9008956115710557
:1024800099F0E62FF72FDF010D900020E9F7119763
:10249000AD014E1B5F0BDC01ED91FC910280F381DD
:1024A000E02D19959C0102C020E030E0822F932F8F
:1024B0000895DC01ED91FC910190F081E02D1995DA
:1024C00008950F931F93CF93DF93EC016DE0F1DF3D
:1024D0008C016AE0CE01EDDF9C01200F311F822FBD
:1024E000932FDF91CF911F910F9108950F931F9319
:1024F000CF93DF93EC01C2DF8C01CE01E2DF9C01C0
:10250000200F311F822F932FDF91CF911F910F91B9
:1025100008954F925F926F927F929F92AF92BF9277
:10252000CF92DF92EF92FF920F931F93CF93DF939F
:10253000CDB7DEB7A1970FB6F894DEBF0FBECDBF03
:102540005C016A017B01922E19A281E0821720F0C2
:102550000F2EFAE09F2EF02D8E010F5D1F4F492C9C
:10256000512C612C712CC701B601A3019201BCD57D
:102570008C2D929E80191124015011098A3010F47B
:10258000805D01C0895CD8018C93C22ED32EE42ECD
:10259000F52EC114D104E104F10429F70115110548
:1025A000A9F0E02FF12FDF010D900020E9F711973E
:1025B000AD014E1B5F0BD501ED91FC910280F381C3
:1025C000E02DB801C50119959C0102C020E030E062
:1025D000822F932FA1960FB6F894DEBF0FBECDBF0A
:1025E000DF91CF911F910F91FF90EF90DF90CF90EF
:1025F000BF90AF909F907F906F905F904F900895A5
:10260000CF92DF92EF92FF920F931F93CF93DF93BE
:10261000EC016A017B012115310549F4E881F9815A
:102620000190F081E02D642F19958C011BC02A3098
:102630003105B1F4772384F46DE23BDF8C0144274C
:102640005527BA014C195D096E097F092AE0CE01B0
:1026500060DF080F191F06C02AE05BDF8C0102C093
:1026600058DF8C01802F912FDF91CF911F910F9117
:10267000FF90EF90DF90CF9008950F931F93CF932B
:10268000DF93EC01BDDF8C01CE011BDF9C01200F2D
:10269000311F822F932FDF91CF911F910F910895BA
:1026A0009A01AB01662757FD6095762FA9CF089553
:1026B0000F931F93CF93DF93EC01F2DF8C01CE01D8
:1026C00000DF9C01200F311F822F932FDF91CF91CC
:1026D0001F910F9108951F920F920FB60F92112420
:1026E0002F933F938F939F93AF93BF938091800CD1
:1026F0009091810CA091820CB091830C3091880C48
:10270000232F2D5F2D3720F40196A11DB11D05C08B
:10271000232F2A570296A11DB11D2093880C809368
:10272000800C9093810CA093820CB093830C8091C9
:10273000840C9091850CA091860CB091870C019629
:10274000A11DB11D8093840C9093850CA093860CE1
:10275000B093870CBF91AF919F918F913F912F9133
:102760000F900FBE0F901F9018950F931F938FB768
:10277000F8940091800C1091810C2091820C309182
:10278000830C8FBF602F712F822F932F1F910F917A
:1027900008950F931F939FB7F8940091840C1091A4
:1027A000850C2091860C3091870C86B5A89B06C0BD
:1027B0008F3F21F00F5F1F4F2F4F3F4F9FBF322F93
:1027C000212F102F0027080F111D211D311D000F73
:1027D000111F221F331F000F111F221F331F602FD5
:1027E000712F822F932F1F910F910895CF92DF9217
:1027F000EF92FF92CF93DF936B017C01CADFEB0175
:10280000C114D104E104F10491F0C3DF6C1B7D0B12
:10281000683E734038F081E0C81AD108E108F10839
:10282000C851DC4FC114D104E104F10471F7DF9108
:10283000CF91FF90EF90DF90CF900895019739F0FE
:10284000880F991F880F991F02970197F1F7089534
:10285000789484B5826084BD84B5816084BD85B57B
:10286000826085BD85B5816085BDEEE6F0E0808142
:1028700081608083E1E8F0E0108280818260808363
:10288000808181608083E0E8F0E0808181608083E6
:10289000E1EBF0E0808184608083E0EBF0E0808118
:1028A00081608083E1E9F0E08081826080838081C3
:1028B00081608083E0E9F0E0808181608083E1EAEB
:1028C000F0E0808182608083808181608083E0EAA3
:1028D000F0E0808181608083E1E2F1E080818260CC
:1028E0008083808181608083E0E2F1E0808181608B
:1028F0008083EAE7F0E08081846080838081826069
:102900008083808181608083808180688083109251
:10291000C1000895893009F44CC088F4843049F12D
:1029200038F4823081F1F8F4813009F071C027C0A9
:10293000873099F1C0F5863009F06AC028C08D3023
:1029400009F44FC030F48B3009F43FC008F043C0A5
:1029500036C0803109F451C0813109F454C08F3040
:1029600009F056C044C0E0E8F0E080818F778083B2
:102970000895E0E8F0E080818F7D8083089584B53C
:102980008F7784BD089584B58F7D84BD0895E0EB75
:10299000F0E080818F7780830895E0EBF0E0808124
:1029A0008F7D80830895E0E9F0E080818F778083D8
:1029B0000895E0E9F0E080818F7D80830895E0E96B
:1029C000F0E08081877F80830895E0EAF0E08081F5
:1029D0008F7780830895E0EAF0E080818F7D8083A7
:1029E0000895E0EAF0E08081877F80830895E0E247
:1029F000F1E080818F7780830895E0E2F1E08081CB
:102A00008F7D80830895E0E2F1E08081877F80837D
:102A10000895CF93DF9390E0FC01E454FD4F44917F
:102A2000FC01EE5FFC4F8491882391F190E0880FC8
:102A3000991FFC01E458FC4F25913491A22FB32F2C
:102A40008E599C4FFC0185919491C82FD92F61110B
:102A50000BC08FB7F8949C91409594239C93E88188
:102A60004E2348838FBF14C0623061F48FB7F8944F
:102A70002C91942F909592239C93E8814E2B488320
:102A80008FBF06C08FB7F894EC914E2B4C938FBF3D
:102A9000DF91CF9108951F93CF93DF93C62F282FF7
:102AA00030E0F901EA58FD4F8491F901E454FD4FFB
:102AB000D491F901EE5FFC4F14911123D1F08111F3
:102AC00029DF212F30E0F901EE0FFF1FEE59FC4FF7
:102AD00085919491A82FB92F8FB7F894C11105C093
:102AE000EC91D095DE23DC9303C0EC91DE2BDC93DC
:102AF0008FBFDF91CF911F9108954F925F926F9298
:102B00007F928F929F92AF92BF92CF92DF92EF927D
:102B1000FF920F931F93CF93DF9390E0FC01E45457
:102B2000FD4F1491FC01EE5FFC4FC491611102C096
:102B300000E001C0012F0F2ECC24CA94DC2CEC2C19
:102B4000FFE0FF2EF02DC222D322E422F522D0E0B6
:102B5000CC0FDD1FC85BDC4F412C512C3201FE0134
:102B6000659174910DC0D301C2010196A11DB11DE3
:102B70004C145D046E047F0409F480C02C013D01F7
:102B8000E62FF72F80818123081769F311C0812C6C
:102B9000912C54018394840C951CA61CB71C4C14D6
:102BA0005D046E047F0409F46DC02401350103C087
:102BB000FE0185919491E82FF92F6081612306131E
:102BC000E6CFFE0185919491E82FF92F8081812332
:102BD000081325C04C145D046E047F0409F456C02C
:102BE000812C912C5401FE01859194910CC0B3016C
:102BF000A201480D591D6A1D7B1DC416D506E606A7
:102C0000F70609F447C02FEF821A920AA20AB20A05
:102C1000E82FF92F60816123061749F303C0812C47
:102C2000912C5401D501C401880F991FAA1FBB1F05
:102C3000880F991FAA1FBB1F6C017D01CC0CDD1CE6
:102C4000EE1CFF1CCC0CDD1CEE1CFF1C8C0D9D1D16
:102C5000AE1DBF1D880E991EAA1EBB1E80E1880EE8
:102C6000911CA11CB11C75016401689413F8F694C1
:102C7000E794D794C7941694D1F70FC0C12CD12CE8
:102C800076010BC0C12CD12C760107C0C12CD12CF0
:102C9000760103C0C12CD12C76016C2D7D2D8E2D9B
:102CA0009F2DDF91CF911F910F91FF90EF90DF90BB
:102CB000CF90BF90AF909F908F907F906F905F90DC
:102CC0004F9008951092F60C81E08093F40C1092CE
:102CD000F30C61E084E1DFDE61E085E1DCDEE9EB5D
:102CE000F0E080818E7F808380818D7F808388E487
:102CF0008093B80085E48093BC000895413208F0C9
:102D000045C09091F60C9111FCCF91E09093F60C98
:102D10002093F40C2FEF2093890C1092CE0C240FEB
:102D20002093CD0C9093F50C9091F50C880F892B86
:102D30008093F50C8091F30C813051F41092F30CD8
:102D40008091F50C8093BB0085EC8093BC0003C0A0
:102D500085EE8093BC008091F60C8130E1F3809188
:102D6000CE0C841710F44091CE0C442389F0EFEC84
:102D7000FCE0A62FB72F2FEF240F30E02053334F66
:102D800091919D93E217F307D9F704C080E008956D
:102D9000842F0895842F08950F93413208F050C076
:102DA0009091F60C9111FCCF92E09093F60C009369
:102DB000F40C9FEF9093890C1092CE0C4093CD0CA5
:102DC000442369F0FB01AFECBCE06F5F7F4F4150E3
:102DD000640F711D91919D93E617F707D9F7109233
:102DE000F50C9091F50C880F892B8093F50C809150
:102DF000F30C813051F41092F30C8091F50C809318
:102E0000BB0085EC8093BC0003C085EE8093BC00C2
:102E1000222341F08091F60C823021F48091F60C4F
:102E20008230E1F38091890C8F3F61F08091890CB1
:102E3000803251F08091890C803341F483E007C0E7
:102E400081E005C080E003C082E001C084E00F9112
:102E500008956132A8F42091F60C243099F460931F
:102E6000AB0C662389F0FC01ADEABCE00196615031
:102E7000860F911D21912D93E817F907D9F706C008
:102E800081E0089582E0089580E0089580E008954B
:102E900085ED8093BC00ECEBF0E0808184FDFDCFFC
:102EA0001092F60C089585EC8093BC001092F60CFD
:102EB00008951F920F920FB60F9211240BB60F9226
:102EC0002F933F934F935F936F937F938F939F9332
:102ED000AF93BF93EF93FF938091B900887F90E009
:102EE000893C910508F0EDC0FC01EE58FF4F3AC156
:102EF0008091F50C8093BB0085EC8093BC00E1C011
:102F00009091CE0C8091CD0C981780F4E091CE0C6E
:102F100081E08E0F8093CE0CF0E0E153F34F80817F
:102F20008093BB0085EC8093BC00CBC08091F40CF7
:102F3000882311F0ADDFC5C081E08093F30C84EAF3
:102F40008093BC001092F60CBCC080E28093890C88
:102F50009FDFB7C080E38093890C9ADFB2C088E31B
:102F60008093890CA0DFADC0E091CE0C81E08E0F84
:102F70008093CE0C8091BB00F0E0E153F34F80834F
:102F80009091CE0C8091CD0C981720F485EC809315
:102F9000BC0097C085E88093BC0093C0E091CE0C44
:102FA00081E08E0F8093CE0C8091BB00F0E0E15366
:102FB000F34F80838091F40C882311F069DF81C086
:102FC00081E08093F30C84EA8093BC001092F60CAD
:102FD00078C05EDF76C083E08093F60C10928A0C96
:102FE00085EC8093BC006DC080918A0C803280F4A7
:102FF000E0918A0C81E08E0F80938A0C8091BB0057
:10300000F0E0E557F34F808385EC8093BC0059C016
:1030100085E88093BC0055C080918A0C803230F4E2
:10302000E0918A0CF0E0E557F34F108231DF6091B8
:103030008A0C70E0E091EF0CF091F00C8BE89CE0D2
:10304000199510928A0C2FDF3CC085E88093BC0054
:1030500038C084E08093F60C1092AC0C1092AB0C4C
:10306000E091F10CF091F20C19958091AB0C81116B
:1030700005C081E08093AB0C1092AD0CE091AC0CDC
:1030800081E08E0F8093AC0CF0E0E355F34F80812C
:103090008093BB009091AC0C8091AB0C981720F4FE
:1030A00085EC8093BC000DC085E88093BC0009C00E
:1030B00085EC8093BC001092F60C03C01092890C32
:1030C000E7DEFF91EF91BF91AF919F918F917F913B
:1030D0006F915F914F913F912F910F900BBE0F9089
:1030E0000FBE0F901F901895A1E21A2EAA1BBB1BB2
:1030F000FD010DC0AA1FBB1FEE1FFF1FA217B307C4
:10310000E407F50720F0A21BB30BE40BF50B661FD9
:10311000771F881F991F1A9469F76095709580959D
:1031200090959B01AC01BD01CF010895052E97FB41
:1031300016F400940FD057FD05D0D6DF07FC02D05F
:1031400046F408C050954095309521953F4F4F4F1C
:103150005F4F089590958095709561957F4F8F4F43
:103160009F4F0895EE0FFF1F0590F491E02D1994E5
:0C3170000790F691E02D1994F894FFCF21
:10317C000000F70C2000E803FFFF612F673A0900FD
:10318C005468652064697374616E636520746F2084
:10319C006F62737461636C657320696E2066726F05
:1031AC006E742069733A2000636D00484D433538C6
:1031BC0038334C20636F6E6E656374696F6E207369
:1031CC0075636365737366756C00484D43353838A9
:1031DC00334C20636F6E6E656374696F6E2066612D
:1031EC00696C6564004D50553630353020636F6E18
:1031FC006E656374696F6E20737563636573736654
:10320C00756C004D50553630353020636F6E6E65E1
:10321C006374696F6E206661696C656400496E69E0
:10322C007469616C697A696E672049324320646500
:10323C0076696365732E2E2E0054657374696E6700
:10324C002064657669636520636F6E6E656374696F
:10325C006F6E732E2E2E006D61673A0900686561E2
:10326C0064696E673A09005461736B2032005461D3
:10327C00736B20330049444C4500000000003A0CAD
:10328C000D0CE20BEA0BFD0B0C0C00000000410EC8
:0A329C001212DB0D0F0EEF0D360EBF
:00000001FF
